{
  "address": "0x4cdF2A174ada12A2B0B6a1D7EdBE043C5cFde0b1",
  "abi": [
    {
      "inputs": [
        {
          "internalType": "contract SoulToken",
          "name": "_soul",
          "type": "address"
        },
        {
          "internalType": "address",
          "name": "_devaddr",
          "type": "address"
        },
        {
          "internalType": "uint256",
          "name": "_soulPerBlock",
          "type": "uint256"
        },
        {
          "internalType": "uint256",
          "name": "_startBlock",
          "type": "uint256"
        }
      ],
      "stateMutability": "nonpayable",
      "type": "constructor"
    },
    {
      "anonymous": false,
      "inputs": [
        {
          "indexed": true,
          "internalType": "address",
          "name": "user",
          "type": "address"
        },
        {
          "indexed": true,
          "internalType": "uint256",
          "name": "pid",
          "type": "uint256"
        },
        {
          "indexed": false,
          "internalType": "uint256",
          "name": "amount",
          "type": "uint256"
        }
      ],
      "name": "Deposit",
      "type": "event"
    },
    {
      "anonymous": false,
      "inputs": [
        {
          "indexed": true,
          "internalType": "address",
          "name": "user",
          "type": "address"
        },
        {
          "indexed": true,
          "internalType": "uint256",
          "name": "pid",
          "type": "uint256"
        },
        {
          "indexed": false,
          "internalType": "uint256",
          "name": "amount",
          "type": "uint256"
        }
      ],
      "name": "EmergencyWithdraw",
      "type": "event"
    },
    {
      "anonymous": false,
      "inputs": [
        {
          "indexed": true,
          "internalType": "address",
          "name": "previousOwner",
          "type": "address"
        },
        {
          "indexed": true,
          "internalType": "address",
          "name": "newOwner",
          "type": "address"
        }
      ],
      "name": "OwnershipTransferred",
      "type": "event"
    },
    {
      "anonymous": false,
      "inputs": [
        {
          "indexed": true,
          "internalType": "address",
          "name": "user",
          "type": "address"
        },
        {
          "indexed": true,
          "internalType": "uint256",
          "name": "pid",
          "type": "uint256"
        },
        {
          "indexed": false,
          "internalType": "uint256",
          "name": "amount",
          "type": "uint256"
        }
      ],
      "name": "Withdraw",
      "type": "event"
    },
    {
      "inputs": [
        {
          "internalType": "uint256",
          "name": "_allocPoint",
          "type": "uint256"
        },
        {
          "internalType": "contract IERC20",
          "name": "_lpToken",
          "type": "address"
        }
      ],
      "name": "add",
      "outputs": [],
      "stateMutability": "nonpayable",
      "type": "function"
    },
    {
      "inputs": [
        {
          "internalType": "uint256",
          "name": "_amount",
          "type": "uint256"
        }
      ],
      "name": "changeSoulPerBlock",
      "outputs": [],
      "stateMutability": "nonpayable",
      "type": "function"
    },
    {
      "inputs": [
        {
          "internalType": "contract IERC20",
          "name": "_lpToken",
          "type": "address"
        }
      ],
      "name": "checkPoolDuplicate",
      "outputs": [],
      "stateMutability": "view",
      "type": "function"
    },
    {
      "inputs": [],
      "name": "claimOwnership",
      "outputs": [],
      "stateMutability": "nonpayable",
      "type": "function"
    },
    {
      "inputs": [
        {
          "internalType": "address",
          "name": "_token",
          "type": "address"
        }
      ],
      "name": "claimToken",
      "outputs": [],
      "stateMutability": "nonpayable",
      "type": "function"
    },
    {
      "inputs": [
        {
          "internalType": "uint256",
          "name": "_pid",
          "type": "uint256"
        },
        {
          "internalType": "uint256",
          "name": "_amount",
          "type": "uint256"
        }
      ],
      "name": "deposit",
      "outputs": [],
      "stateMutability": "nonpayable",
      "type": "function"
    },
    {
      "inputs": [
        {
          "internalType": "address",
          "name": "_devaddr",
          "type": "address"
        }
      ],
      "name": "dev",
      "outputs": [],
      "stateMutability": "nonpayable",
      "type": "function"
    },
    {
      "inputs": [],
      "name": "devaddr",
      "outputs": [
        {
          "internalType": "address",
          "name": "",
          "type": "address"
        }
      ],
      "stateMutability": "view",
      "type": "function"
    },
    {
      "inputs": [
        {
          "internalType": "uint256",
          "name": "_pid",
          "type": "uint256"
        }
      ],
      "name": "emergencyWithdraw",
      "outputs": [],
      "stateMutability": "nonpayable",
      "type": "function"
    },
    {
      "inputs": [],
      "name": "massUpdatePools",
      "outputs": [],
      "stateMutability": "nonpayable",
      "type": "function"
    },
    {
      "inputs": [],
      "name": "owner",
      "outputs": [
        {
          "internalType": "address",
          "name": "",
          "type": "address"
        }
      ],
      "stateMutability": "view",
      "type": "function"
    },
    {
      "inputs": [
        {
          "internalType": "uint256",
          "name": "_pid",
          "type": "uint256"
        },
        {
          "internalType": "address",
          "name": "_user",
          "type": "address"
        }
      ],
      "name": "pendingSoul",
      "outputs": [
        {
          "internalType": "uint256",
          "name": "",
          "type": "uint256"
        }
      ],
      "stateMutability": "view",
      "type": "function"
    },
    {
      "inputs": [
        {
          "internalType": "uint256",
          "name": "",
          "type": "uint256"
        }
      ],
      "name": "poolInfo",
      "outputs": [
        {
          "internalType": "contract IERC20",
          "name": "lpToken",
          "type": "address"
        },
        {
          "internalType": "uint256",
          "name": "allocPoint",
          "type": "uint256"
        },
        {
          "internalType": "uint256",
          "name": "lastRewardBlock",
          "type": "uint256"
        },
        {
          "internalType": "uint256",
          "name": "accSoulPerShare",
          "type": "uint256"
        }
      ],
      "stateMutability": "view",
      "type": "function"
    },
    {
      "inputs": [],
      "name": "poolLength",
      "outputs": [
        {
          "internalType": "uint256",
          "name": "",
          "type": "uint256"
        }
      ],
      "stateMutability": "view",
      "type": "function"
    },
    {
      "inputs": [
        {
          "internalType": "address",
          "name": "_proposedOwner",
          "type": "address"
        }
      ],
      "name": "proposeOwner",
      "outputs": [],
      "stateMutability": "nonpayable",
      "type": "function"
    },
    {
      "inputs": [
        {
          "internalType": "address",
          "name": "_owner",
          "type": "address"
        }
      ],
      "name": "proposeSoulOwner",
      "outputs": [],
      "stateMutability": "nonpayable",
      "type": "function"
    },
    {
      "inputs": [],
      "name": "renounceOwnership",
      "outputs": [],
      "stateMutability": "nonpayable",
      "type": "function"
    },
    {
      "inputs": [
        {
          "internalType": "uint256",
          "name": "_pid",
          "type": "uint256"
        },
        {
          "internalType": "uint256",
          "name": "_allocPoint",
          "type": "uint256"
        }
      ],
      "name": "set",
      "outputs": [],
      "stateMutability": "nonpayable",
      "type": "function"
    },
    {
      "inputs": [],
      "name": "soul",
      "outputs": [
        {
          "internalType": "contract SoulToken",
          "name": "",
          "type": "address"
        }
      ],
      "stateMutability": "view",
      "type": "function"
    },
    {
      "inputs": [],
      "name": "soulPerBlock",
      "outputs": [
        {
          "internalType": "uint256",
          "name": "",
          "type": "uint256"
        }
      ],
      "stateMutability": "view",
      "type": "function"
    },
    {
      "inputs": [],
      "name": "startBlock",
      "outputs": [
        {
          "internalType": "uint256",
          "name": "",
          "type": "uint256"
        }
      ],
      "stateMutability": "view",
      "type": "function"
    },
    {
      "inputs": [],
      "name": "totalAllocPoint",
      "outputs": [
        {
          "internalType": "uint256",
          "name": "",
          "type": "uint256"
        }
      ],
      "stateMutability": "view",
      "type": "function"
    },
    {
      "inputs": [
        {
          "internalType": "uint256",
          "name": "_pid",
          "type": "uint256"
        }
      ],
      "name": "updatePool",
      "outputs": [],
      "stateMutability": "nonpayable",
      "type": "function"
    },
    {
      "inputs": [
        {
          "internalType": "uint256",
          "name": "",
          "type": "uint256"
        },
        {
          "internalType": "address",
          "name": "",
          "type": "address"
        }
      ],
      "name": "userInfo",
      "outputs": [
        {
          "internalType": "uint256",
          "name": "amount",
          "type": "uint256"
        },
        {
          "internalType": "uint256",
          "name": "rewardDebt",
          "type": "uint256"
        }
      ],
      "stateMutability": "view",
      "type": "function"
    },
    {
      "inputs": [
        {
          "internalType": "uint256",
          "name": "_pid",
          "type": "uint256"
        },
        {
          "internalType": "uint256",
          "name": "_amount",
          "type": "uint256"
        }
      ],
      "name": "withdraw",
      "outputs": [],
      "stateMutability": "nonpayable",
      "type": "function"
    }
  ],
  "transactionHash": "0x6f24cd36a9be365359b4a9f40a3f338860365b5cb5ce6e166e3b2b817ef454ae",
  "args": [
    "0x1B94976D2cb6A472c09A5755B7DD8c7e0b900e2d",
    "0x39a51313dbAA03689b1394f969DA87CD9Ecbc889",
    "1000000000000000000",
    "100000"
  ],
  "solcInputHash": "164e1af2e18a56cbbf5565f81501a1fb",
  "bytecode": "0x6080604052600060075534801561001557600080fd5b50604051611b07380380611b078339818101604052608081101561003857600080fd5b508051602082015160408301516060909301519192909160006100596100e1565b600080546001600160a01b0319166001600160a01b0383169081178255604051929350917f8be0079c531659141344cd1fd0a4f28419497f9722a3daafe3b4186f6b6457e0908290a350600280546001600160a01b039586166001600160a01b03199182161790915560038054949095169316929092179092556004919091556008556100e5565b3390565b611a13806100f46000396000f3fe608060405234801561001057600080fd5b50600436106101735760003560e01c8063630b5ba1116100de5780638da5cb5b11610097578063b5ed298a11610071578063b5ed298a146103e3578063bfafcad514610409578063d49e77cd14610435578063e2bbb1581461043d57610173565b80638da5cb5b1461037957806393f1a40b14610381578063a9298404146103c657610173565b8063630b5ba1146102f1578063715018a6146102f95780637b5f0b0914610301578063815b7a8c146103275780638358028c1461034b5780638d88a90e1461035357610173565b806332f289cf1161013057806332f289cf1461025e578063441a3e701461028457806348cd4cb1146102a75780634e71e0c8146102af57806351eb05a6146102b75780635312ea8e146102d457610173565b8063081e3eda146101785780631526fe271461019257806317caf6f1146101df5780631ab06ee5146101e75780632b8bbbe81461020c578063322d0d4a14610238575b600080fd5b610180610460565b60408051918252519081900360200190f35b6101af600480360360208110156101a857600080fd5b5035610466565b604080516001600160a01b0390951685526020850193909352838301919091526060830152519081900360800190f35b6101806104a7565b61020a600480360360408110156101fd57600080fd5b50803590602001356104ad565b005b61020a6004803603604081101561022257600080fd5b50803590602001356001600160a01b0316610577565b61020a6004803603602081101561024e57600080fd5b50356001600160a01b03166106f4565b61020a6004803603602081101561027457600080fd5b50356001600160a01b0316610789565b61020a6004803603604081101561029a57600080fd5b50803590602001356107df565b610180610949565b61020a61094f565b61020a600480360360208110156102cd57600080fd5b5035610a12565b61020a600480360360208110156102ea57600080fd5b5035610c42565b61020a610cdf565b61020a610d02565b61020a6004803603602081101561031757600080fd5b50356001600160a01b0316610db0565b61032f610e56565b604080516001600160a01b039092168252519081900360200190f35b610180610e65565b61020a6004803603602081101561036957600080fd5b50356001600160a01b0316610e6b565b61032f610ee5565b6103ad6004803603604081101561039757600080fd5b50803590602001356001600160a01b0316610ef4565b6040805192835260208301919091528051918290030190f35b61020a600480360360208110156103dc57600080fd5b5035610f18565b61020a600480360360208110156103f957600080fd5b50356001600160a01b0316610fbc565b6101806004803603604081101561041f57600080fd5b50803590602001356001600160a01b0316611094565b61032f611201565b61020a6004803603604081101561045357600080fd5b5080359060200135611210565b60055490565b6005818154811061047357fe5b600091825260209091206004909102018054600182015460028301546003909301546001600160a01b039092169350919084565b60075481565b6104b5611378565b6000546001600160a01b03908116911614610505576040805162461bcd60e51b81526020600482018190526024820152600080516020611972833981519152604482015290519081900360640190fd5b61050d610cdf565b61054a816105446005858154811061052157fe5b90600052602060002090600402016001015460075461137c90919063ffffffff16565b906113d9565b600781905550806005838154811061055e57fe5b9060005260206000209060040201600101819055505050565b61057f611378565b6000546001600160a01b039081169116146105cf576040805162461bcd60e51b81526020600482018190526024820152600080516020611972833981519152604482015290519081900360640190fd5b6105d8816106f4565b6105e0610cdf565b600060085443116105f3576008546105f5565b435b60075490915061060590846113d9565b600755604080516080810182526001600160a01b0393841681526020810194855290810191825260006060820181815260058054600181018255925291517f036b6384b5eca791c62761152d0c79bb0604c104a5fb6f4eb0703f3154bb3db0600490920291820180546001600160a01b031916919095161790935592517f036b6384b5eca791c62761152d0c79bb0604c104a5fb6f4eb0703f3154bb3db1830155517f036b6384b5eca791c62761152d0c79bb0604c104a5fb6f4eb0703f3154bb3db282015590517f036b6384b5eca791c62761152d0c79bb0604c104a5fb6f4eb0703f3154bb3db390910155565b60055460005b8181101561078457826001600160a01b03166005828154811061071957fe5b60009182526020909120600490910201546001600160a01b0316141561077c576040805162461bcd60e51b81526020600482015260136024820152726164643a206578697374696e6720706f6f6c3f60681b604482015290519081900360640190fd5b6001016106fa565b505050565b806001600160a01b0316634e71e0c86040518163ffffffff1660e01b8152600401600060405180830381600087803b1580156107c457600080fd5b505af11580156107d8573d6000803e3d6000fd5b5050505050565b6000600583815481106107ee57fe5b60009182526020808320868452600682526040808520338652909252922080546004909202909201925083111561086c576040805162461bcd60e51b815260206004820152601860248201527f77697468647261773a20696e76616c696420616d6f756e740000000000000000604482015290519081900360640190fd5b61087584610a12565b60006108af82600101546108a964e8d4a510006108a38760030154876000015461143a90919063ffffffff16565b90611493565b9061137c565b905080156108c1576108c133826114fa565b83156108eb5781546108d3908561137c565b825582546108eb906001600160a01b031633866115aa565b600383015482546109069164e8d4a51000916108a39161143a565b6001830155604080518581529051869133917ff279e6a1f5e320cca91135676d9cb6e44ca8a08c0b88342bcdb1144f6511b5689181900360200190a35050505050565b60085481565b6001546001600160a01b031633146109ae576040805162461bcd60e51b815260206004820152601860248201527f4552524f525f4e4f545f50524f504f5345445f4f574e45520000000000000000604482015290519081900360640190fd5b600154600080546040516001600160a01b0393841693909116917f8be0079c531659141344cd1fd0a4f28419497f9722a3daafe3b4186f6b6457e091a360018054600080546001600160a01b03199081166001600160a01b03841617909155169055565b600060058281548110610a2157fe5b9060005260206000209060040201905080600201544311610a425750610c3f565b8054604080516370a0823160e01b815230600482015290516000926001600160a01b0316916370a08231916024808301926020929190829003018186803b158015610a8c57600080fd5b505afa158015610aa0573d6000803e3d6000fd5b505050506040513d6020811015610ab657600080fd5b5051905080610acc575043600290910155610c3f565b6000610ae583600201544361137c90919063ffffffff16565b90506000610b126007546108a38660010154610b0c6004548761143a90919063ffffffff16565b9061143a565b6002546003549192506001600160a01b03908116916340c10f199116610b3984600a611493565b6040518363ffffffff1660e01b815260040180836001600160a01b0316815260200182815260200192505050600060405180830381600087803b158015610b7f57600080fd5b505af1158015610b93573d6000803e3d6000fd5b5050600254604080516340c10f1960e01b81523060048201526024810186905290516001600160a01b0390921693506340c10f19925060448082019260009290919082900301818387803b158015610bea57600080fd5b505af1158015610bfe573d6000803e3d6000fd5b50505050610c2c610c21846108a364e8d4a510008561143a90919063ffffffff16565b6003860154906113d9565b6003850155505043600290920191909155505b50565b600060058281548110610c5157fe5b600091825260208083208584526006825260408085203380875293528420805485825560018201959095556004909302018054909450919291610ca1916001600160a01b039190911690836115aa565b81546040805191825251859133917fbb757047c2b5f3974fe26b7c10f732e7bce710b0952a71082702781e62ae05959181900360200190a350505050565b60055460005b81811015610cfe57610cf681610a12565b600101610ce5565b5050565b610d0a611378565b6000546001600160a01b03908116911614610d5a576040805162461bcd60e51b81526020600482018190526024820152600080516020611972833981519152604482015290519081900360640190fd5b600080546040516001600160a01b03909116907f8be0079c531659141344cd1fd0a4f28419497f9722a3daafe3b4186f6b6457e0908390a3600080546001600160a01b0319908116909155600180549091169055565b610db8611378565b6000546001600160a01b03908116911614610e08576040805162461bcd60e51b81526020600482018190526024820152600080516020611972833981519152604482015290519081900360640190fd5b60025460408051635af694c560e11b81526001600160a01b0384811660048301529151919092169163b5ed298a91602480830192600092919082900301818387803b1580156107c457600080fd5b6002546001600160a01b031681565b60045481565b610e73611378565b6000546001600160a01b03908116911614610ec3576040805162461bcd60e51b81526020600482018190526024820152600080516020611972833981519152604482015290519081900360640190fd5b600380546001600160a01b0319166001600160a01b0392909216919091179055565b6000546001600160a01b031690565b60066020908152600092835260408084209091529082529020805460019091015482565b610f20611378565b6000546001600160a01b03908116911614610f70576040805162461bcd60e51b81526020600482018190526024820152600080516020611972833981519152604482015290519081900360640190fd5b60008111610faf5760405162461bcd60e51b81526004018080602001828103825260228152602001806119926022913960400191505060405180910390fd5b610fb7610cdf565b600455565b610fc4611378565b6000546001600160a01b03908116911614611014576040805162461bcd60e51b81526020600482018190526024820152600080516020611972833981519152604482015290519081900360640190fd5b336001600160a01b0382161415611072576040805162461bcd60e51b815260206004820152601a60248201527f4552524f525f43414c4c45525f414c52454144595f4f574e4552000000000000604482015290519081900360640190fd5b600180546001600160a01b0319166001600160a01b0392909216919091179055565b600080600584815481106110a457fe5b600091825260208083208784526006825260408085206001600160a01b03898116875290845281862060049586029093016003810154815484516370a0823160e01b81523098810198909852935191985093969395939492909116926370a08231926024808301939192829003018186803b15801561112257600080fd5b505afa158015611136573d6000803e3d6000fd5b505050506040513d602081101561114c57600080fd5b505160028501549091504311801561116357508015155b156111cc57600061118185600201544361137c90919063ffffffff16565b905060006111a86007546108a38860010154610b0c6004548761143a90919063ffffffff16565b90506111c76111c0846108a38464e8d4a5100061143a565b85906113d9565b935050505b6111f483600101546108a964e8d4a510006108a386886000015461143a90919063ffffffff16565b9450505050505b92915050565b6003546001600160a01b031681565b6005548210611266576040805162461bcd60e51b815260206004820152601c60248201527f6465706f7369743a20706f6f6c20646f6573206e6f7420657869737400000000604482015290519081900360640190fd5b60006005838154811061127557fe5b600091825260208083208684526006825260408085203386529092529220600490910290910191506112a684610a12565b8054156112ef5760006112db82600101546108a964e8d4a510006108a38760030154876000015461143a90919063ffffffff16565b905080156112ed576112ed33826114fa565b505b821561131b57815461130c906001600160a01b03163330866115fc565b805461131890846113d9565b81555b600382015481546113369164e8d4a51000916108a39161143a565b6001820155604080518481529051859133917f90890809c654f11d6e72a28fa60149770a0d11ec6c92319d6ceb2bb0a4ea1a159181900360200190a350505050565b3390565b6000828211156113d3576040805162461bcd60e51b815260206004820152601e60248201527f536166654d6174683a207375627472616374696f6e206f766572666c6f770000604482015290519081900360640190fd5b50900390565b600082820183811015611433576040805162461bcd60e51b815260206004820152601b60248201527f536166654d6174683a206164646974696f6e206f766572666c6f770000000000604482015290519081900360640190fd5b9392505050565b600082611449575060006111fb565b8282028284828161145657fe5b04146114335760405162461bcd60e51b81526004018080602001828103825260218152602001806119516021913960400191505060405180910390fd5b60008082116114e9576040805162461bcd60e51b815260206004820152601a60248201527f536166654d6174683a206469766973696f6e206279207a65726f000000000000604482015290519081900360640190fd5b8183816114f257fe5b049392505050565b600254604080516370a0823160e01b815230600482015290516000926001600160a01b0316916370a08231916024808301926020929190829003018186803b15801561154557600080fd5b505afa158015611559573d6000803e3d6000fd5b505050506040513d602081101561156f57600080fd5b505190508082111561159757600254611592906001600160a01b031684836115aa565b610784565b600254610784906001600160a01b031684845b604080516001600160a01b038416602482015260448082018490528251808303909101815260649091019091526020810180516001600160e01b031663a9059cbb60e01b17905261078490849061165c565b604080516001600160a01b0380861660248301528416604482015260648082018490528251808303909101815260849091019091526020810180516001600160e01b03166323b872dd60e01b17905261165690859061165c565b50505050565b60606116b1826040518060400160405280602081526020017f5361666545524332303a206c6f772d6c6576656c2063616c6c206661696c6564815250856001600160a01b031661170d9092919063ffffffff16565b805190915015610784578080602001905160208110156116d057600080fd5b50516107845760405162461bcd60e51b815260040180806020018281038252602a8152602001806119b4602a913960400191505060405180910390fd5b606061171c8484600085611724565b949350505050565b6060824710156117655760405162461bcd60e51b815260040180806020018281038252602681526020018061192b6026913960400191505060405180910390fd5b61176e85611880565b6117bf576040805162461bcd60e51b815260206004820152601d60248201527f416464726573733a2063616c6c20746f206e6f6e2d636f6e7472616374000000604482015290519081900360640190fd5b60006060866001600160a01b031685876040518082805190602001908083835b602083106117fe5780518252601f1990920191602091820191016117df565b6001836020036101000a03801982511681845116808217855250505050505090500191505060006040518083038185875af1925050503d8060008114611860576040519150601f19603f3d011682016040523d82523d6000602084013e611865565b606091505b5091509150611875828286611886565b979650505050505050565b3b151590565b60608315611895575081611433565b8251156118a55782518084602001fd5b8160405162461bcd60e51b81526004018080602001828103825283818151815260200191508051906020019080838360005b838110156118ef5781810151838201526020016118d7565b50505050905090810190601f16801561191c5780820380516001836020036101000a031916815260200191505b509250505060405180910390fdfe416464726573733a20696e73756666696369656e742062616c616e636520666f722063616c6c536166654d6174683a206d756c7469706c69636174696f6e206f766572666c6f774f776e61626c653a2063616c6c6572206973206e6f7420746865206f776e65726368616e6765536f756c506572426c6f636b3a20696e76616c696420616d6f756e745361666545524332303a204552433230206f7065726174696f6e20646964206e6f742073756363656564a2646970667358221220f5886fd719944a7f00f456a85b29c6da2d3c8b524aad16b7d6d4b6ce71558e1a64736f6c634300060c0033",
  "devdoc": {
    "kind": "dev",
    "methods": {
      "claimOwnership()": {
        "details": "If the address has been proposed, it can accept the ownership, Can only be called by the current proposed owner."
      },
      "owner()": {
        "details": "Returns the address of the current owner."
      },
      "proposeOwner(address)": {
        "details": "Proposes a new owner of the contract to a new account (`newOwner`). Can only be called by the current owner."
      },
      "renounceOwnership()": {
        "details": "Leaves the contract without owner. It will not be possible to call `onlyOwner` functions anymore. Can only be called by the current owner. NOTE: Renouncing ownership will leave the contract without an owner, thereby removing any functionality that is only available to the owner."
      }
    },
    "version": 1
  },
  "userdoc": {
    "kind": "user",
    "methods": {},
    "version": 1
  },
  "storageLayout": {
    "storage": [
      {
        "astId": 2080,
        "contract": "contracts/Plutus.sol:Plutus",
        "label": "_owner",
        "offset": 0,
        "slot": "0",
        "type": "t_address"
      },
      {
        "astId": 2082,
        "contract": "contracts/Plutus.sol:Plutus",
        "label": "proposedOwner",
        "offset": 0,
        "slot": "1",
        "type": "t_address"
      },
      {
        "astId": 2243,
        "contract": "contracts/Plutus.sol:Plutus",
        "label": "soul",
        "offset": 0,
        "slot": "2",
        "type": "t_contract(SoulToken)3725"
      },
      {
        "astId": 2245,
        "contract": "contracts/Plutus.sol:Plutus",
        "label": "devaddr",
        "offset": 0,
        "slot": "3",
        "type": "t_address"
      },
      {
        "astId": 2247,
        "contract": "contracts/Plutus.sol:Plutus",
        "label": "soulPerBlock",
        "offset": 0,
        "slot": "4",
        "type": "t_uint256"
      },
      {
        "astId": 2250,
        "contract": "contracts/Plutus.sol:Plutus",
        "label": "poolInfo",
        "offset": 0,
        "slot": "5",
        "type": "t_array(t_struct(PoolInfo)2241_storage)dyn_storage"
      },
      {
        "astId": 2256,
        "contract": "contracts/Plutus.sol:Plutus",
        "label": "userInfo",
        "offset": 0,
        "slot": "6",
        "type": "t_mapping(t_uint256,t_mapping(t_address,t_struct(UserInfo)2232_storage))"
      },
      {
        "astId": 2259,
        "contract": "contracts/Plutus.sol:Plutus",
        "label": "totalAllocPoint",
        "offset": 0,
        "slot": "7",
        "type": "t_uint256"
      },
      {
        "astId": 2261,
        "contract": "contracts/Plutus.sol:Plutus",
        "label": "startBlock",
        "offset": 0,
        "slot": "8",
        "type": "t_uint256"
      }
    ],
    "types": {
      "t_address": {
        "encoding": "inplace",
        "label": "address",
        "numberOfBytes": "20"
      },
      "t_array(t_struct(PoolInfo)2241_storage)dyn_storage": {
        "base": "t_struct(PoolInfo)2241_storage",
        "encoding": "dynamic_array",
        "label": "struct Plutus.PoolInfo[]",
        "numberOfBytes": "32"
      },
      "t_contract(IERC20)1048": {
        "encoding": "inplace",
        "label": "contract IERC20",
        "numberOfBytes": "20"
      },
      "t_contract(SoulToken)3725": {
        "encoding": "inplace",
        "label": "contract SoulToken",
        "numberOfBytes": "20"
      },
      "t_mapping(t_address,t_struct(UserInfo)2232_storage)": {
        "encoding": "mapping",
        "key": "t_address",
        "label": "mapping(address => struct Plutus.UserInfo)",
        "numberOfBytes": "32",
        "value": "t_struct(UserInfo)2232_storage"
      },
      "t_mapping(t_uint256,t_mapping(t_address,t_struct(UserInfo)2232_storage))": {
        "encoding": "mapping",
        "key": "t_uint256",
        "label": "mapping(uint256 => mapping(address => struct Plutus.UserInfo))",
        "numberOfBytes": "32",
        "value": "t_mapping(t_address,t_struct(UserInfo)2232_storage)"
      },
      "t_struct(PoolInfo)2241_storage": {
        "encoding": "inplace",
        "label": "struct Plutus.PoolInfo",
        "members": [
          {
            "astId": 2234,
            "contract": "contracts/Plutus.sol:Plutus",
            "label": "lpToken",
            "offset": 0,
            "slot": "0",
            "type": "t_contract(IERC20)1048"
          },
          {
            "astId": 2236,
            "contract": "contracts/Plutus.sol:Plutus",
            "label": "allocPoint",
            "offset": 0,
            "slot": "1",
            "type": "t_uint256"
          },
          {
            "astId": 2238,
            "contract": "contracts/Plutus.sol:Plutus",
            "label": "lastRewardBlock",
            "offset": 0,
            "slot": "2",
            "type": "t_uint256"
          },
          {
            "astId": 2240,
            "contract": "contracts/Plutus.sol:Plutus",
            "label": "accSoulPerShare",
            "offset": 0,
            "slot": "3",
            "type": "t_uint256"
          }
        ],
        "numberOfBytes": "128"
      },
      "t_struct(UserInfo)2232_storage": {
        "encoding": "inplace",
        "label": "struct Plutus.UserInfo",
        "members": [
          {
            "astId": 2229,
            "contract": "contracts/Plutus.sol:Plutus",
            "label": "amount",
            "offset": 0,
            "slot": "0",
            "type": "t_uint256"
          },
          {
            "astId": 2231,
            "contract": "contracts/Plutus.sol:Plutus",
            "label": "rewardDebt",
            "offset": 0,
            "slot": "1",
            "type": "t_uint256"
          }
        ],
        "numberOfBytes": "64"
      },
      "t_uint256": {
        "encoding": "inplace",
        "label": "uint256",
        "numberOfBytes": "32"
      }
    }
  }
}